{
  "_format": "hh-sol-artifact-1",
  "contractName": "CarRental",
  "sourceName": "contracts/CarRental.sol",
  "abi": [
    {
      "anonymous": false,
      "inputs": [
        {
          "indexed": true,
          "internalType": "uint256",
          "name": "carId",
          "type": "uint256"
        },
        {
          "indexed": true,
          "internalType": "address",
          "name": "owner",
          "type": "address"
        }
      ],
      "name": "CarRegistered",
      "type": "event"
    },
    {
      "anonymous": false,
      "inputs": [
        {
          "indexed": true,
          "internalType": "uint256",
          "name": "carId",
          "type": "uint256"
        },
        {
          "indexed": true,
          "internalType": "address",
          "name": "renter",
          "type": "address"
        },
        {
          "indexed": false,
          "internalType": "uint256",
          "name": "startDate",
          "type": "uint256"
        },
        {
          "indexed": false,
          "internalType": "uint256",
          "name": "endDate",
          "type": "uint256"
        },
        {
          "indexed": false,
          "internalType": "uint256",
          "name": "paid",
          "type": "uint256"
        }
      ],
      "name": "CarRented",
      "type": "event"
    },
    {
      "anonymous": false,
      "inputs": [
        {
          "indexed": true,
          "internalType": "uint256",
          "name": "carId",
          "type": "uint256"
        }
      ],
      "name": "CarUnavailable",
      "type": "event"
    },
    {
      "anonymous": false,
      "inputs": [
        {
          "indexed": true,
          "internalType": "uint256",
          "name": "carId",
          "type": "uint256"
        }
      ],
      "name": "CarUpdated",
      "type": "event"
    },
    {
      "anonymous": false,
      "inputs": [
        {
          "indexed": true,
          "internalType": "uint256",
          "name": "carId",
          "type": "uint256"
        },
        {
          "indexed": true,
          "internalType": "address",
          "name": "owner",
          "type": "address"
        }
      ],
      "name": "FuelRefillVerified",
      "type": "event"
    },
    {
      "anonymous": false,
      "inputs": [
        {
          "indexed": true,
          "internalType": "uint256",
          "name": "carId",
          "type": "uint256"
        },
        {
          "indexed": true,
          "internalType": "address",
          "name": "renter",
          "type": "address"
        },
        {
          "indexed": false,
          "internalType": "uint256",
          "name": "refunded",
          "type": "uint256"
        }
      ],
      "name": "RentalCancelled",
      "type": "event"
    },
    {
      "anonymous": false,
      "inputs": [
        {
          "indexed": true,
          "internalType": "uint256",
          "name": "carId",
          "type": "uint256"
        }
      ],
      "name": "RentalEnded",
      "type": "event"
    },
    {
      "anonymous": false,
      "inputs": [
        {
          "indexed": true,
          "internalType": "uint256",
          "name": "carId",
          "type": "uint256"
        },
        {
          "indexed": true,
          "internalType": "address",
          "name": "renter",
          "type": "address"
        }
      ],
      "name": "RentalReturned",
      "type": "event"
    },
    {
      "inputs": [
        {
          "internalType": "uint256",
          "name": "",
          "type": "uint256"
        }
      ],
      "name": "activeRental",
      "outputs": [
        {
          "internalType": "uint256",
          "name": "carId",
          "type": "uint256"
        },
        {
          "internalType": "address",
          "name": "renter",
          "type": "address"
        },
        {
          "internalType": "uint256",
          "name": "startDate",
          "type": "uint256"
        },
        {
          "internalType": "uint256",
          "name": "endDate",
          "type": "uint256"
        },
        {
          "internalType": "uint256",
          "name": "paid",
          "type": "uint256"
        },
        {
          "internalType": "bool",
          "name": "active",
          "type": "bool"
        }
      ],
      "stateMutability": "view",
      "type": "function"
    },
    {
      "inputs": [
        {
          "internalType": "uint256",
          "name": "_carId",
          "type": "uint256"
        }
      ],
      "name": "cancelRental",
      "outputs": [],
      "stateMutability": "nonpayable",
      "type": "function"
    },
    {
      "inputs": [],
      "name": "carCount",
      "outputs": [
        {
          "internalType": "uint256",
          "name": "",
          "type": "uint256"
        }
      ],
      "stateMutability": "view",
      "type": "function"
    },
    {
      "inputs": [
        {
          "internalType": "uint256",
          "name": "",
          "type": "uint256"
        }
      ],
      "name": "cars",
      "outputs": [
        {
          "internalType": "uint256",
          "name": "id",
          "type": "uint256"
        },
        {
          "internalType": "address",
          "name": "owner",
          "type": "address"
        },
        {
          "internalType": "string",
          "name": "model",
          "type": "string"
        },
        {
          "internalType": "string",
          "name": "pickupLocation",
          "type": "string"
        },
        {
          "internalType": "uint256",
          "name": "pricePerDay",
          "type": "uint256"
        },
        {
          "internalType": "enum CarRental.CarStatus",
          "name": "status",
          "type": "uint8"
        },
        {
          "internalType": "uint256",
          "name": "earnings",
          "type": "uint256"
        },
        {
          "internalType": "enum CarRental.FuelStatus",
          "name": "fuelStatus",
          "type": "uint8"
        }
      ],
      "stateMutability": "view",
      "type": "function"
    },
    {
      "inputs": [
        {
          "internalType": "uint256",
          "name": "_carId",
          "type": "uint256"
        }
      ],
      "name": "endRental",
      "outputs": [],
      "stateMutability": "nonpayable",
      "type": "function"
    },
    {
      "inputs": [
        {
          "internalType": "address",
          "name": "user",
          "type": "address"
        }
      ],
      "name": "getOwnerHistory",
      "outputs": [
        {
          "components": [
            {
              "internalType": "uint256",
              "name": "carId",
              "type": "uint256"
            },
            {
              "internalType": "address",
              "name": "renter",
              "type": "address"
            },
            {
              "internalType": "uint256",
              "name": "startDate",
              "type": "uint256"
            },
            {
              "internalType": "uint256",
              "name": "endDate",
              "type": "uint256"
            },
            {
              "internalType": "uint256",
              "name": "paid",
              "type": "uint256"
            },
            {
              "internalType": "bool",
              "name": "active",
              "type": "bool"
            }
          ],
          "internalType": "struct CarRental.Rental[]",
          "name": "",
          "type": "tuple[]"
        }
      ],
      "stateMutability": "view",
      "type": "function"
    },
    {
      "inputs": [
        {
          "internalType": "address",
          "name": "user",
          "type": "address"
        }
      ],
      "name": "getRenterHistory",
      "outputs": [
        {
          "components": [
            {
              "internalType": "uint256",
              "name": "carId",
              "type": "uint256"
            },
            {
              "internalType": "address",
              "name": "renter",
              "type": "address"
            },
            {
              "internalType": "uint256",
              "name": "startDate",
              "type": "uint256"
            },
            {
              "internalType": "uint256",
              "name": "endDate",
              "type": "uint256"
            },
            {
              "internalType": "uint256",
              "name": "paid",
              "type": "uint256"
            },
            {
              "internalType": "bool",
              "name": "active",
              "type": "bool"
            }
          ],
          "internalType": "struct CarRental.Rental[]",
          "name": "",
          "type": "tuple[]"
        }
      ],
      "stateMutability": "view",
      "type": "function"
    },
    {
      "inputs": [
        {
          "internalType": "string",
          "name": "_model",
          "type": "string"
        },
        {
          "internalType": "string",
          "name": "_pickupLocation",
          "type": "string"
        },
        {
          "internalType": "uint256",
          "name": "_pricePerDay",
          "type": "uint256"
        }
      ],
      "name": "registerCar",
      "outputs": [],
      "stateMutability": "nonpayable",
      "type": "function"
    },
    {
      "inputs": [
        {
          "internalType": "uint256",
          "name": "_carId",
          "type": "uint256"
        },
        {
          "internalType": "uint256",
          "name": "_startDate",
          "type": "uint256"
        },
        {
          "internalType": "uint256",
          "name": "_endDate",
          "type": "uint256"
        }
      ],
      "name": "rentCar",
      "outputs": [],
      "stateMutability": "payable",
      "type": "function"
    },
    {
      "inputs": [
        {
          "internalType": "uint256",
          "name": "_carId",
          "type": "uint256"
        }
      ],
      "name": "returnCar",
      "outputs": [],
      "stateMutability": "nonpayable",
      "type": "function"
    },
    {
      "inputs": [
        {
          "internalType": "uint256",
          "name": "_carId",
          "type": "uint256"
        }
      ],
      "name": "setCarAvailable",
      "outputs": [],
      "stateMutability": "nonpayable",
      "type": "function"
    },
    {
      "inputs": [
        {
          "internalType": "uint256",
          "name": "_carId",
          "type": "uint256"
        }
      ],
      "name": "setCarUnavailable",
      "outputs": [],
      "stateMutability": "nonpayable",
      "type": "function"
    },
    {
      "inputs": [
        {
          "internalType": "uint256",
          "name": "_carId",
          "type": "uint256"
        },
        {
          "internalType": "string",
          "name": "_pickupLocation",
          "type": "string"
        },
        {
          "internalType": "uint256",
          "name": "_pricePerDay",
          "type": "uint256"
        }
      ],
      "name": "updateCarDetails",
      "outputs": [],
      "stateMutability": "nonpayable",
      "type": "function"
    },
    {
      "inputs": [
        {
          "internalType": "uint256",
          "name": "_carId",
          "type": "uint256"
        }
      ],
      "name": "verifyFuelRefill",
      "outputs": [],
      "stateMutability": "nonpayable",
      "type": "function"
    }
  ],
  "bytecode": "0x608060405234801561001057600080fd5b50611b31806100206000396000f3fe6080604052600436106100c25760003560e01c80635e0dacb41161007f57806397491d6f1161005957806397491d6f1461025a57806397ce99df1461027a578063b76963f1146102a7578063f7746e36146102c757600080fd5b80635e0dacb4146101fa578063634058321461021a578063968abad91461023a57600080fd5b806301a572bf146100c7578063297a1f56146100e95780632f792339146101125780634192440d1461013257806346b516ea14610145578063563254af146101da575b600080fd5b3480156100d357600080fd5b506100e76100e23660046115d0565b6102fb565b005b3480156100f557600080fd5b506100ff60005481565b6040519081526020015b60405180910390f35b34801561011e57600080fd5b506100e761012d36600461168c565b610464565b6100e76101403660046116f9565b61061e565b34801561015157600080fd5b506101a36101603660046115d0565b600260208190526000918252604090912080546001820154928201546003830154600484015460059094015492946001600160a01b031693919290919060ff1686565b604080519687526001600160a01b0390951660208701529385019290925260608401526080830152151560a082015260c001610109565b3480156101e657600080fd5b506100e76101f53660046115d0565b610c41565b34801561020657600080fd5b506100e76102153660046115d0565b610dc8565b34801561022657600080fd5b506100e7610235366004611725565b610fc7565b34801561024657600080fd5b506100e76102553660046115d0565b6110e5565b34801561026657600080fd5b506100e76102753660046115d0565b6111c7565b34801561028657600080fd5b5061029a610295366004611764565b61130a565b6040516101099190611794565b3480156102b357600080fd5b5061029a6102c2366004611764565b6113c3565b3480156102d357600080fd5b506102e76102e23660046115d0565b61146e565b604051610109989796959493929190611873565b6000818152600160208190526040909120908101546001600160a01b031633146103405760405162461bcd60e51b8152600401610337906118fa565b60405180910390fd5b6002600582015460ff16600281111561035b5761035b61185d565b146103a85760405162461bcd60e51b815260206004820152601b60248201527f436172206973206e6f742063757272656e746c792068696464656e00000000006044820152606401610337565b6000600782015460ff1660018111156103c3576103c361185d565b146104295760405162461bcd60e51b815260206004820152603060248201527f4675656c206e6f742076657269666965643a2063616c6c20766572696679467560448201526f195b1499599a5b1b0a0a48199a5c9cdd60821b6064820152608401610337565b60058101805460ff1916905560405182907f935eeddcdb911de1c078d5ba3c0138d64d317e34145e127419eaa373421d051a90600090a25050565b600081116104a45760405162461bcd60e51b815260206004820152600d60248201526c496e76616c696420707269636560981b6044820152606401610337565b6000805490806104b383611934565b91905055506040518061010001604052806000548152602001336001600160a01b03168152602001848152602001838152602001828152602001600060028111156105005761050061185d565b8152602001600081526020016000600181111561051f5761051f61185d565b905260008054815260016020818152604092839020845181559084015191810180546001600160a01b0319166001600160a01b039093169290921790915590820151600282019061057090826119d6565b506060820151600382019061058590826119d6565b506080820151600482015560a082015160058201805460ff191660018360028111156105b3576105b361185d565b021790555060c0820151600682015560e082015160078201805460ff1916600183818111156105e4576105e461185d565b0217905550506000805460405133935090917f459e1abea8d58f1f390ad63904970bc184e7e026ff12f2f7f3c3aed6677ad18791a3505050565b600083815260016020526040812090600582015460ff1660028111156106465761064661185d565b146106875760405162461bcd60e51b8152602060048201526011602482015270436172206e6f7420617661696c61626c6560781b6044820152606401610337565b6000600782015460ff1660018111156106a2576106a261185d565b146106fa5760405162461bcd60e51b815260206004820152602260248201527f436172206675656c206e6f74207665726966696564206279206f776e65722079604482015261195d60f21b6064820152608401610337565b8282116107495760405162461bcd60e51b815260206004820152601c60248201527f456e642064617465206d757374206265206166746572207374617274000000006044820152606401610337565b6000620151806107598585611a96565b6107639190611aaf565b9050600081116107ac5760405162461bcd60e51b8152602060048201526014602482015273135a5b9a5b5d5b480c4819185e481c995b9d185b60621b6044820152606401610337565b60008260040154826107be9190611ad1565b9050803410156108065760405162461bcd60e51b8152602060048201526013602482015272139bdd08195b9bdd59da08115512081cd95b9d606a1b6044820152606401610337565b60058301805460ff1916600117905560068301805482919060009061082c908490611ae8565b9250508190555060006040518060c00160405280888152602001336001600160a01b0316815260200187815260200186815260200183815260200160011515815250905080600260008981526020019081526020016000206000820151816000015560208201518160010160006101000a8154816001600160a01b0302191690836001600160a01b0316021790555060408201518160020155606082015181600301556080820151816004015560a08201518160050160006101000a81548160ff02191690831515021790555090505060036000336001600160a01b03166001600160a01b031681526020019081526020016000208190806001815401808255809150506001900390600052602060002090600602016000909190919091506000820151816000015560208201518160010160006101000a8154816001600160a01b0302191690836001600160a01b0316021790555060408201518160020155606082015181600301556080820151816004015560a08201518160050160006101000a81548160ff0219169083151502179055505050600460008560010160009054906101000a90046001600160a01b03166001600160a01b03166001600160a01b031681526020019081526020016000208190806001815401808255809150506001900390600052602060002090600602016000909190919091506000820151816000015560208201518160010160006101000a8154816001600160a01b0302191690836001600160a01b0316021790555060408201518160020155606082015181600301556080820151816004015560a08201518160050160006101000a81548160ff021916908315150217905550505060008460010160009054906101000a90046001600160a01b03166001600160a01b03168360405160006040518083038185875af1925050503d8060008114610b03576040519150601f19603f3d011682016040523d82523d6000602084013e610b08565b606091505b5050905080610b505760405162461bcd60e51b815260206004820152601460248201527313dddb995c881c185e5b595b9d0819985a5b195960621b6044820152606401610337565b82341115610bf2576000610b648434611a96565b604051909150600090339083908381818185875af1925050503d8060008114610ba9576040519150601f19603f3d011682016040523d82523d6000602084013e610bae565b606091505b5050905080610bef5760405162461bcd60e51b815260206004820152600d60248201526c1499599d5b990819985a5b1959609a1b6044820152606401610337565b50505b6040805188815260208101889052908101849052339089907fe1e862fec8fa1927775190a10702820a777d0b1d4f2ff534be9783ef31f088599060600160405180910390a35050505050505050565b6000818152600160208190526040909120908101546001600160a01b03163314610cad5760405162461bcd60e51b815260206004820152601a60248201527f4f6e6c79206f776e65722063616e20766572696679206675656c0000000000006044820152606401610337565b6002600582015460ff166002811115610cc857610cc861185d565b14610d155760405162461bcd60e51b815260206004820181905260248201527f436172206d75737420626520696e20556e617661696c61626c652073746174656044820152606401610337565b6001600782015460ff166001811115610d3057610d3061185d565b14610d7d5760405162461bcd60e51b815260206004820181905260248201527f4675656c20697320616c72656164792076657269666965642061732046756c6c6044820152606401610337565b60078101805460ff199081169091556005820180549091169055604051339083907f96f7f4ed950fc1a31a5eeb5a1bebcaca096e7be313aff5810973a164e00a564590600090a35050565b6000818152600160208190526040909120908101546001600160a01b03163314610e045760405162461bcd60e51b8152600401610337906118fa565b6001600582015460ff166002811115610e1f57610e1f61185d565b14610e5d5760405162461bcd60e51b815260206004820152600e60248201526d10d85c881b9bdd081c995b9d195960921b6044820152606401610337565b6000828152600260205260409020600581015460ff16610eb25760405162461bcd60e51b815260206004820152601060248201526f139bc81858dd1a5d99481c995b9d185b60821b6044820152606401610337565b6005818101805460ff19908116909155908301805482166002179055600783018054909116600190811790915581015460048201546040516000926001600160a01b031691908381818185875af1925050503d8060008114610f30576040519150601f19603f3d011682016040523d82523d6000602084013e610f35565b606091505b5050905080610f765760405162461bcd60e51b815260206004820152600d60248201526c1499599d5b990819985a5b1959609a1b6044820152606401610337565b600182015460048301546040519081526001600160a01b039091169085907f8e5451389e92e46e3ab85110d65acde7ac22919df8dd6df438d70b3188cace629060200160405180910390a350505050565b6000838152600160208190526040909120908101546001600160a01b031633146110035760405162461bcd60e51b8152600401610337906118fa565b6000600582015460ff16600281111561101e5761101e61185d565b1461105e5760405162461bcd60e51b815260206004820152601060248201526f436172206e6f74206564697461626c6560801b6044820152606401610337565b6000821161109e5760405162461bcd60e51b815260206004820152600d60248201526c496e76616c696420707269636560981b6044820152606401610337565b600381016110ac84826119d6565b506004810182905560405184907f935eeddcdb911de1c078d5ba3c0138d64d317e34145e127419eaa373421d051a90600090a250505050565b6000818152600160208190526040909120908101546001600160a01b031633146111215760405162461bcd60e51b8152600401610337906118fa565b6000600582015460ff16600281111561113c5761113c61185d565b146111895760405162461bcd60e51b815260206004820152601d60248201527f436172206d75737420626520417661696c61626c6520746f20686964650000006044820152606401610337565b60058101805460ff1916600217905560405182907f8172b0d60cd9c559c5e144ada5c0a01393a852f631c3f66696b0649e5080060390600090a25050565b6000818152600160208190526040909120908101546001600160a01b031633146112035760405162461bcd60e51b8152600401610337906118fa565b6001600582015460ff16600281111561121e5761121e61185d565b146112585760405162461bcd60e51b815260206004820152600a602482015269139bdd081c995b9d195960b21b6044820152606401610337565b600082815260026020526040902060038101544210156112b05760405162461bcd60e51b815260206004820152601360248201527252656e74616c207374696c6c2061637469766560681b6044820152606401610337565b6005818101805460ff19908116909155908301805482166002179055600783018054909116600117905560405183907fdf0018bb98956332f02ca39511007ac6497224c99f12b6cb8518a69aa6be5e5b90600090a2505050565b6001600160a01b0381166000908152600360209081526040808320805482518185028101850190935280835260609492939192909184015b828210156113b85760008481526020908190206040805160c08101825260068602909201805483526001808201546001600160a01b03168486015260028201549284019290925260038101546060840152600481015460808401526005015460ff16151560a08301529083529092019101611342565b505050509050919050565b6001600160a01b03811660009081526004602090815260408083208054825181850281018501909352808352606094929391929091840182156113b85760008481526020908190206040805160c08101825260068602909201805483526001808201546001600160a01b03168486015260028201549284019290925260038101546060840152600481015460808401526005015460ff16151560a08301529083529092019101611342565b60016020819052600091825260409091208054918101546002820180546001600160a01b0390921692916114a19061194d565b80601f01602080910402602001604051908101604052809291908181526020018280546114cd9061194d565b801561151a5780601f106114ef5761010080835404028352916020019161151a565b820191906000526020600020905b8154815290600101906020018083116114fd57829003601f168201915b50505050509080600301805461152f9061194d565b80601f016020809104026020016040519081016040528092919081815260200182805461155b9061194d565b80156115a85780601f1061157d576101008083540402835291602001916115a8565b820191906000526020600020905b81548152906001019060200180831161158b57829003601f168201915b505050506004830154600584015460068501546007909501549394919360ff91821693501688565b6000602082840312156115e257600080fd5b5035919050565b634e487b7160e01b600052604160045260246000fd5b600082601f83011261161057600080fd5b813567ffffffffffffffff8082111561162b5761162b6115e9565b604051601f8301601f19908116603f01168101908282118183101715611653576116536115e9565b8160405283815286602085880101111561166c57600080fd5b836020870160208301376000602085830101528094505050505092915050565b6000806000606084860312156116a157600080fd5b833567ffffffffffffffff808211156116b957600080fd5b6116c5878388016115ff565b945060208601359150808211156116db57600080fd5b506116e8868287016115ff565b925050604084013590509250925092565b60008060006060848603121561170e57600080fd5b505081359360208301359350604090920135919050565b60008060006060848603121561173a57600080fd5b83359250602084013567ffffffffffffffff81111561175857600080fd5b6116e8868287016115ff565b60006020828403121561177657600080fd5b81356001600160a01b038116811461178d57600080fd5b9392505050565b602080825282518282018190526000919060409081850190868401855b8281101561180a57815180518552868101516001600160a01b0316878601528581015186860152606080820151908601526080808201519086015260a09081015115159085015260c090930192908501906001016117b1565b5091979650505050505050565b6000815180845260005b8181101561183d57602081850181015186830182015201611821565b506000602082860101526020601f19601f83011685010191505092915050565b634e487b7160e01b600052602160045260246000fd5b8881526001600160a01b03881660208201526101006040820181905260009061189e8382018a611817565b905082810360608401526118b28189611817565b915050856080830152600385106118cb576118cb61185d565b8460a08301528360c0830152600283106118e7576118e761185d565b8260e08301529998505050505050505050565b6020808252600a908201526927b7363c9037bbb732b960b11b604082015260600190565b634e487b7160e01b600052601160045260246000fd5b6000600182016119465761194661191e565b5060010190565b600181811c9082168061196157607f821691505b60208210810361198157634e487b7160e01b600052602260045260246000fd5b50919050565b601f8211156119d157600081815260208120601f850160051c810160208610156119ae5750805b601f850160051c820191505b818110156119cd578281556001016119ba565b5050505b505050565b815167ffffffffffffffff8111156119f0576119f06115e9565b611a04816119fe845461194d565b84611987565b602080601f831160018114611a395760008415611a215750858301515b600019600386901b1c1916600185901b1785556119cd565b600085815260208120601f198616915b82811015611a6857888601518255948401946001909101908401611a49565b5085821015611a865787850151600019600388901b60f8161c191681555b5050505050600190811b01905550565b81810381811115611aa957611aa961191e565b92915050565b600082611acc57634e487b7160e01b600052601260045260246000fd5b500490565b8082028115828204841417611aa957611aa961191e565b80820180821115611aa957611aa961191e56fea264697066735822122006670568762dd545761ae56bc3dee000812a1f25de173ba6ba11d14c02fd1ef264736f6c63430008140033",
  "linkReferences": {},
  "deployedLinkReferences": {}
}